{
  "contractName": "UCP",
  "abi": [
    {
      "constant": true,
      "inputs": [
        {
          "name": "",
          "type": "address"
        },
        {
          "name": "",
          "type": "uint256"
        }
      ],
      "name": "ucpRecords",
      "outputs": [
        {
          "name": "ucpName",
          "type": "string"
        },
        {
          "name": "ucpDescription",
          "type": "string"
        },
        {
          "name": "confirmed",
          "type": "bool"
        }
      ],
      "payable": false,
      "stateMutability": "view",
      "type": "function"
    },
    {
      "constant": true,
      "inputs": [],
      "name": "admin",
      "outputs": [
        {
          "name": "",
          "type": "address"
        }
      ],
      "payable": false,
      "stateMutability": "view",
      "type": "function"
    },
    {
      "constant": false,
      "inputs": [
        {
          "name": "user",
          "type": "address"
        },
        {
          "name": "_ucpName",
          "type": "string"
        },
        {
          "name": "_ucpDescription",
          "type": "string"
        }
      ],
      "name": "setUCP",
      "outputs": [],
      "payable": false,
      "stateMutability": "nonpayable",
      "type": "function"
    },
    {
      "constant": true,
      "inputs": [
        {
          "name": "user",
          "type": "address"
        }
      ],
      "name": "getUCPs",
      "outputs": [
        {
          "components": [
            {
              "name": "ucpName",
              "type": "string"
            },
            {
              "name": "ucpDescription",
              "type": "string"
            },
            {
              "name": "confirmed",
              "type": "bool"
            }
          ],
          "name": "",
          "type": "tuple[]"
        }
      ],
      "payable": false,
      "stateMutability": "view",
      "type": "function"
    },
    {
      "constant": false,
      "inputs": [
        {
          "name": "user",
          "type": "address"
        },
        {
          "name": "index",
          "type": "uint256"
        }
      ],
      "name": "confirmUCP",
      "outputs": [],
      "payable": false,
      "stateMutability": "nonpayable",
      "type": "function"
    }
  ],
  "bytecode": "0x608060405234801561001057600080fd5b50610e1e806100206000396000f3fe608060405260043610610067576000357c0100000000000000000000000000000000000000000000000000000000900480636032e32a1461006c5780636e54128214610095578063a8c3b4ee146100d4578063d75a00f514610111578063f851a4401461013a575b600080fd5b34801561007857600080fd5b50610093600480360361008e91908101906109ac565b610165565b005b3480156100a157600080fd5b506100bc60048036036100b791908101906109ac565b610350565b6040516100cb93929190610c09565b60405180910390f35b3480156100e057600080fd5b506100fb60048036036100f69190810190610904565b6104d3565b6040516101089190610be7565b60405180910390f35b34801561011d57600080fd5b506101386004803603610133919081019061092d565b6106d1565b005b34801561014657600080fd5b5061014f6107bc565b60405161015c9190610bcc565b60405180910390f35b6000809054906101000a900473ffffffffffffffffffffffffffffffffffffffff1673ffffffffffffffffffffffffffffffffffffffff163373ffffffffffffffffffffffffffffffffffffffff161415156101f6576040517f08c379a00000000000000000000000000000000000000000000000000000000081526004016101ed90610c8e565b60405180910390fd5b600160008373ffffffffffffffffffffffffffffffffffffffff1673ffffffffffffffffffffffffffffffffffffffff168152602001908152602001600020805490508110151561027c576040517f08c379a000000000000000000000000000000000000000000000000000000000815260040161027390610c4e565b60405180910390fd5b6000600160008473ffffffffffffffffffffffffffffffffffffffff1673ffffffffffffffffffffffffffffffffffffffff168152602001908152602001600020828154811015156102ca57fe5b906000526020600020906003020190508060020160009054906101000a900460ff1615151561032e576040517f08c379a000000000000000000000000000000000000000000000000000000000815260040161032590610c6e565b60405180910390fd5b60018160020160006101000a81548160ff021916908315150217905550505050565b60016020528160005260406000208181548110151561036b57fe5b906000526020600020906003020160009150915050806000018054600181600116156101000203166002900480601f0160208091040260200160405190810160405280929190818152602001828054600181600116156101000203166002900480156104185780601f106103ed57610100808354040283529160200191610418565b820191906000526020600020905b8154815290600101906020018083116103fb57829003601f168201915b505050505090806001018054600181600116156101000203166002900480601f0160208091040260200160405190810160405280929190818152602001828054600181600116156101000203166002900480156104b65780601f1061048b576101008083540402835291602001916104b6565b820191906000526020600020905b81548152906001019060200180831161049957829003601f168201915b5050505050908060020160009054906101000a900460ff16905083565b6060600160008373ffffffffffffffffffffffffffffffffffffffff1673ffffffffffffffffffffffffffffffffffffffff168152602001908152602001600020805480602002602001604051908101604052809291908181526020016000905b828210156106c6578382906000526020600020906003020160606040519081016040529081600082018054600181600116156101000203166002900480601f0160208091040260200160405190810160405280929190818152602001828054600181600116156101000203166002900480156105f15780601f106105c6576101008083540402835291602001916105f1565b820191906000526020600020905b8154815290600101906020018083116105d457829003601f168201915b50505050508152602001600182018054600181600116156101000203166002900480601f0160208091040260200160405190810160405280929190818152602001828054600181600116156101000203166002900480156106935780601f1061066857610100808354040283529160200191610693565b820191906000526020600020905b81548152906001019060200180831161067657829003601f168201915b505050505081526020016002820160009054906101000a900460ff16151515158152505081526020019060010190610534565b505050509050919050565b600160008473ffffffffffffffffffffffffffffffffffffffff1673ffffffffffffffffffffffffffffffffffffffff168152602001908152602001600020606060405190810160405280848152602001838152602001600015158152509080600181540180825580915050906001820390600052602060002090600302016000909192909190915060008201518160000190805190602001906107769291906107e1565b5060208201518160010190805190602001906107939291906107e1565b5060408201518160020160006101000a81548160ff021916908315150217905550505050505050565b6000809054906101000a900473ffffffffffffffffffffffffffffffffffffffff1681565b828054600181600116156101000203166002900490600052602060002090601f016020900481019282601f1061082257805160ff1916838001178555610850565b82800160010185558215610850579182015b8281111561084f578251825591602001919060010190610834565b5b50905061085d9190610861565b5090565b61088391905b8082111561087f576000816000905550600101610867565b5090565b90565b60006108928235610d75565b905092915050565b600082601f83011215156108ad57600080fd5b81356108c06108bb82610cdb565b610cae565b915080825260208301602083018583830111156108dc57600080fd5b6108e7838284610d91565b50505092915050565b60006108fc8235610d87565b905092915050565b60006020828403121561091657600080fd5b600061092484828501610886565b91505092915050565b60008060006060848603121561094257600080fd5b600061095086828701610886565b935050602084013567ffffffffffffffff81111561096d57600080fd5b6109798682870161089a565b925050604084013567ffffffffffffffff81111561099657600080fd5b6109a28682870161089a565b9150509250925092565b600080604083850312156109bf57600080fd5b60006109cd85828601610886565b92505060206109de858286016108f0565b9150509250929050565b6109f181610d37565b82525050565b6000610a0282610d14565b80845260208401935083602082028501610a1b85610d07565b60005b84811015610a54578383038852610a36838351610b75565b9250610a4182610d2a565b9150602088019750600181019050610a1e565b508196508694505050505092915050565b610a6e81610d49565b82525050565b6000610a7f82610d1f565b808452610a93816020860160208601610da0565b610a9c81610dd3565b602085010191505092915050565b6000600d82527f496e76616c696420696e646578000000000000000000000000000000000000006020830152604082019050919050565b6000601582527f55435020616c726561647920636f6e6669726d656400000000000000000000006020830152604082019050919050565b6000602582527f4f6e6c792061646d696e2063616e20706572666f726d2074686973206f70657260208301527f6174696f6e0000000000000000000000000000000000000000000000000000006040830152606082019050919050565b60006060830160008301518482036000860152610b928282610a74565b91505060208301518482036020860152610bac8282610a74565b9150506040830151610bc16040860182610a65565b508091505092915050565b6000602082019050610be160008301846109e8565b92915050565b60006020820190508181036000830152610c0181846109f7565b905092915050565b60006060820190508181036000830152610c238186610a74565b90508181036020830152610c378185610a74565b9050610c466040830184610a65565b949350505050565b60006020820190508181036000830152610c6781610aaa565b9050919050565b60006020820190508181036000830152610c8781610ae1565b9050919050565b60006020820190508181036000830152610ca781610b18565b9050919050565b6000604051905081810181811067ffffffffffffffff82111715610cd157600080fd5b8060405250919050565b600067ffffffffffffffff821115610cf257600080fd5b601f19601f8301169050602081019050919050565b6000602082019050919050565b600081519050919050565b600081519050919050565b6000602082019050919050565b6000610d4282610d55565b9050919050565b60008115159050919050565b600073ffffffffffffffffffffffffffffffffffffffff82169050919050565b6000610d8082610d55565b9050919050565b6000819050919050565b82818337600083830152505050565b60005b83811015610dbe578082015181840152602081019050610da3565b83811115610dcd576000848401525b50505050565b6000601f19601f830116905091905056fea265627a7a723058201d737dd5c3acde3c81fb1933557f20954239d8e2b6cb4157fe956933cd3cfbff6c6578706572696d656e74616cf50037",
  "source": "// SPDX-License-Identifier: MIT\r\npragma solidity >=0.4.22 <0.9.0;\r\npragma experimental ABIEncoderV2;\r\n\r\ncontract UCP {\r\n    address public admin;\r\n\r\n    struct UCPRecord {\r\n        string ucpName;\r\n        string ucpDescription;\r\n        bool confirmed;\r\n    }\r\n    \r\n    mapping(address => UCPRecord[]) public ucpRecords;\r\n    \r\n    modifier onlyAdmin() {\r\n        require(msg.sender == admin, \"Only admin can perform this operation\");\r\n        _;\r\n    }\r\n    \r\n    function setUCP(address user, string memory _ucpName, string memory _ucpDescription) public {\r\n        ucpRecords[user].push(UCPRecord(_ucpName, _ucpDescription, false));\r\n    }\r\n    \r\n    function getUCPs(address user) public view returns (UCPRecord[] memory) {\r\n        return ucpRecords[user];\r\n    }\r\n    \r\n    function confirmUCP(address user, uint256 index) public onlyAdmin {\r\n        require(index < ucpRecords[user].length, \"Invalid index\");\r\n\r\n        UCPRecord storage record = ucpRecords[user][index];\r\n        require(!record.confirmed, \"UCP already confirmed\");\r\n\r\n        record.confirmed = true;\r\n    }\r\n}",
  "sourcePath": "C:\\BlockchainPrjTruffleDappE\\contracts\\UCP.sol",
  "compiler": {
    "name": "solc",
    "version": "0.5.1+commit.c8a2cb62.Emscripten.clang"
  },
  "schemaVersion": "3.4.16",
  "updatedAt": "2023-12-05T08:32:39.477Z",
  "networkType": "ethereum",
  "devdoc": {
    "methods": {}
  },
  "userdoc": {
    "methods": {}
  }
}